:020000040800F2
:10000000E0060020290200081D1600089D150008C2
:100010001916000821040008F1160008000000006D
:10002000000000000000000000000000251600088D
:100030002504000800000000211600082916000809
:10004000430200084302000843020008430200087C
:10005000430200084302000843020008430200086C
:10006000430200084302000843020008430200085C
:10007000430200084302000843020008430200084C
:10008000430200084302000843020008430200083C
:10009000430200084302000843020008430200082C
:1000A000430200084302000843020008430200081C
:1000B000430200084302000843020008430200080C
:1000C00043020008430200084302000843020008FC
:1000D00043020008430200084302000843020008EC
:1000E00043020008430200084302000843020008DC
:1000F00043020008430200084302000843020008CC
:1001000043020008430200084302000843020008BB
:1001100043020008430200084302000843020008AB
:10012000430200084302000843020008430200089B
:10013000430200084302000843020008430200088B
:10014000430200084302000843020008430200087B
:10015000430200084302000843020008430200086B
:10016000430200084302000843020008430200085B
:100170004302000843020008430200080000000098
:10018000430200084302000800F002F800F03CF8C7
:100190000AA090E8000C82448344AAF10107DA45E2
:1001A00001D100F031F8AFF2090EBAE80F0013F0F8
:1001B000010F18BFFB1A43F001031847F81600009F
:1001C00018170000103A24BF78C878C1FAD852072F
:1001D00024BF30C830C144BF04680C6070470000C1
:1001E0000023002400250026103A28BF78C1FBD840
:1001F000520728BF30C148BF0B6070471FB501F0E0
:100200003FFB1FBD10B510BD00F0D0F81146FFF741
:10021000F5FF01F0D9FA00F0EEF803B4FFF7F2FFB2
:1002200003BC00F0F5F80000094880470948004782
:10023000FEE7FEE7FEE7FEE7FEE7FEE7FEE7FEE796
:10024000FEE7FEE704480549054A064B70470000F3
:10025000DD16000889010008E0000020E00600200B
:10026000E0020020E002002053EA020C00F0698066
:100270002DE9F04B4FF00006002B1FBFB3FA83F5BA
:1002800003FA05F424FA05F65E4012BF1643B2FAEB
:1002900082F502FA05F4C5F120051EBF22FA05FC1D
:1002A00044EA0C04203556EA044C4FEA144418BFC3
:1002B000641C4FF000084FF00009904271EB030CF2
:1002C00039D3002919BFB1FA81F701FA07F6B0FA5C
:1002D00080F700FA07F6C7F120071EBF20FA07FCD7
:1002E00046EA0C062037B6FBF4FCA7EB0507103FE7
:1002F00007F01F0BCBF120062CFA06F60CFA0BFBCD
:1003000044BFB3460026202FA4BF5E464FF0000B2B
:100310005BEA060C08BF4FF0010B19EB0B0948EB29
:100320000608ABFB027C06FB02CC0BFB03CCC01B1C
:1003300071EB0C01C1E70B46024641464846BDE859
:10034000F08B13B5084318BF4FF0FF300146AFF3F1
:100350000080BDE81C4070474FF0000200B5134616
:1003600094469646203922BFA0E80C50A0E80C50D5
:10037000B1F12001BFF4F7AF090728BFA0E80C5086
:1003800048BF0CC05DF804EB890028BF40F8042B7F
:1003900008BF704748BF20F8022B11F0804F18BFEC
:1003A00000F8012B7047704770477047754600F0A2
:1003B0002BF8AE4605006946534620F007008546F7
:1003C00018B020B5FFF73EFFBDE820404FF0000613
:1003D0004FF000074FF000084FF0000BAC46ACE8C0
:1003E000C009ACE8C009ACE8C009ACE8C00921F01C
:1003F00007018D46704710B50446AFF300802046D4
:10040000BDE81040FFF709BF0048704720000020FA
:1004100001491820ABBEFEE726000200704700002D
:10042000FEE7000070470000EFF3108072B600BFD7
:10043000FEE70000B0B5044600F0E0F8054640F2E3
:100440001400C2F200000078611C18BF044400BF11
:1004500000F0D4F8401BA042FAD3B0BD2DE9F04F14
:1004600082B000F13E4241F6004502F1FF77C4F24E
:10047000020508224FEAB726A84208BF0722072E26
:1004800038BF4FEAB7224FF0010A002400274FF08F
:100490000009009209E000BF09F101090437B9F130
:1004A000100F04F1020400F0A6800A680AFA09FCA1
:1004B00012EA0C08F0D0D1F804B00BF0030AAAF14C
:1004C0000102012A12D882680323CE6803FA04FECF
:1004D00022EA0E02A640324382604268CBF3001645
:1004E00022EA0C0206FA09F632434260BAF1030F1F
:1004F0001DD0C26803238D6803FA04F6B24305FADF
:1005000004F63243BAF1020FC26010D16FF0030259
:1005100002EA59020244D2F820C007F01C050F235A
:100520000E69AB402CEA0303AE403343136202680A
:1005300003234E68A3409A4306F00303A3401A43E3
:1005400016F4403F4FF0010A0260A5D0002243F6A6
:1005500044030192C4F202031A6843F6004E42F4C7
:1005600080421A601A68C4F2010E02F480420192BD
:10057000019A29F003024FF6084C7244CFF6FF7C33
:1005800052F80C3007F00C060F25B540AB43009D28
:1005900005FA06F6334342F80C30DEF808204B68C3
:1005A00042EA080643F60C4CDD0258BF22EA080670
:1005B000CEF80860C4F2010CDCF800209D0242EA8B
:1005C000080658BF22EA0806CCF80060DEF80420CE
:1005D0009D0342EA080658BF22EA0806CEF80460E6
:1005E000DEF80020DB0342EA080658BF22EA0806CC
:1005F000CEF8006050E702B0BDE8F08F40F2DC00BA
:10060000C2F2000000687047F0B581B0B0B3044694
:1006100090F83D0028B9002084F83C00204600F006
:1006200091FA242084F83D002068016821F001013E
:100630000160016841F400410160016821F400415A
:10064000016000F013FC48F28041C0F21E0140F648
:100650000012656888424FF00001C0F23D0248F286
:10066000A16C4FF0000338BF01219042C0F2010C91
:1006700038BF0123654538BF0B4613B1012001B0D7
:10068000F0BD4DF68361C4F21B31A0FB011221685D
:100690004FEA924E4B684FF4967623F03F0343EABD
:1006A00092434B6044F6D3530F6A0EFB06F6C1F239
:1006B0006203A6FB033627F03F03B709654538BF41
:1006C000970C7A1C1A430A62CA6948F2A0674CF672
:1006D000FF73C0F20107BD4222EA030C0AD80138B9
:1006E0006A00B0FBF2F001306FF31F30042898BFAE
:1006F00004202BE0A368A0F1010E9BB119206843F0
:10070000BEFBF0F00422013062F31F30000512D06E
:100710009BB119206843BEFBF0F00422013062F364
:100720001F3011E005EB4500BEFBF0F001306FF328
:100730001F300005ECD1012008E005EB4500BEFBB1
:10074000F0F001306FF31F3040F4004040EA0C003D
:10075000C8610868D4E9072320F0C000104318439B
:100760000860886848F2FF3204F10C0790438CCF90
:1007700018431043A6698860C86820F0FF0038431A
:100780003043C860086840F0010008600020202164
:10079000206484F83D10206384F83E0001B0F0BD71
:1007A0002DE9F04782B09A46164688460446FFF780
:1007B00025FF94F83D10202921D1DDF82890054629
:1007C0002068806910F0020713D0FFF717FF401B65
:1007D0001A28F5D300202021206384F83D1084F8E6
:1007E0003E00216C002F41F02001216484F83C0080
:1007F0006DD194F83C00012806D1022600E00226C3
:10080000304602B0BDE8F0870121206884F83C1032
:100810000168C90703D1016841F001010160016865
:1008200021F400610160212184F83D10102184F839
:100830003E10002121646662A4F82AA0618D218502
:100840000021CFF6FF71E162E16A11F5803F18BF28
:10085000012975D1016841F480710160406910F08F
:1008600001002ED180F0010609F1010707E000BF69
:100870002068406910F0010080F0010621D1002FAE
:10088000F6D0FFF7BBFEB9F1000F02D0401B484580
:10089000EED900202021206384F83D1084F83E002A
:1008A000216C41F020012164F10784F83C0008D05C
:1008B000206801260068C00544BF4FF40070206422
:1008C0009EE72069B0F5804F03D1FE2141E002266A
:1008D00096E7062000EAD8112068F03101614169ED
:1008E000090735D44169490514D409F1010600BF4F
:1008F0004EB1FFF783FEB9F1000F00F01381401BEA
:10090000484500F20F8120684169090720D44169F8
:100910004905EDD50168012641F4007101606FF4CD
:100920008061416100202021206384F83D1084F81B
:100930003E00216C41F00401216484F83C005FE733
:1009400008293FF487AF216B12293FF483AF85E775
:10095000FF21206801EA08010161416989072DD45E
:100960004169490514D409F1010600BF4EB1FFF7F2
:1009700045FEB9F1000F00F0C680401B484500F26B
:10098000C28020684169890718D441694905EDD5BD
:100990000168012641F4007101606FF480614161DA
:1009A00000202021206384F83D1084F83E00216C53
:1009B00041F00401216484F83C0021E700260196FF
:1009C000206841690191806901900198208D00287B
:1009D00054D009F1010700BF206850F8141F090620
:1009E0000FD40168490556D4002FF5D0FFF706FE55
:1009F000B9F1000F4FF0200151D0401B4845EBD911
:100A00004DE0D4F824E02268704610F8013B1361F1
:100A10006062608D01386085B4F828C01046ACF182
:100A20000103238550F8141F49070DD519040BD075
:100A30009EF8011011610EF102016162618D0139B0
:100A40006185ACF102012185016802E0206850F85F
:100A5000141F49070FD40168490538D4002FF5D079
:100A6000FFF7CCFDB9F1000F4FF0200133D0401B50
:100A70004845EBD92FE0208D0028ADD120680168D2
:100A800041F400710160202084F83D0084F83E604C
:100A900084F83C60B4E66FF48061016004210020BA
:100AA0002022206384F83D2084F83E00226C11430C
:100AB000216484F83C00206C042806D120680126BB
:100AC000016841F4007101609AE6012698E66FF42E
:100AD00080610160042100202022206384F83D20F1
:100AE00084F83E00226C1143216484F83C00206CA1
:100AF000042806D120680126016841F400710160D4
:100B00007EE601267CE600202021206384F83D104B
:100B100084F83E00216C012641F02001216484F814
:100B20003C006DE600202021206384F83D1084F80D
:100B30003E00216C012641F02001216484F83C0034
:100B40005EE60000B0B586B045F200410068C4F230
:100B50000001002488420594CDE9034402940194E5
:100B600001D006B0B0BD43F630050094C4F20205D2
:100B7000286840F002002860286800F00200009019
:100B80000098C02001901220CDE9020403200490B7
:100B90000420059001F5D83001A9FFF75FFC00940F
:100BA000286940F400102861286900F400100090C2
:100BB000009806B0B0BD000040F2140040F2DC0125
:100BC000C2F20000C2F2000100780A681044086016
:100BD0007047000080B543F60040C4F2020001688F
:100BE00041F400710160016841F4806101600168B5
:100BF00041F480710160032000F078F8002000F0DB
:100C000005F800F02BF8002080BD0000B0B540F2E0
:100C10001402C2F2000240F200011278C2F2000196
:100C20004FF47A730968B3FBF2F20446B1FBF2F1B8
:100C3000084600F009FB0F2C4FF001050CD858B9FD
:100C40004FF0FF3021460022002500F023F840F24B
:100C50001800C2F2000004602846B0BD82B0002037
:100C600043F640010190C4F202014A6842F4804216
:100C70004A604A6802F480420192019A0090086832
:100C800040F080500860086800F0805000900098A4
:100C900002B0704710B54EF60C5CCEF2000CDCF8DA
:100CA0000030C3F3022E8EF00704042C28BF042466
:100CB000BEF103034FF0FF3E0EFA04F438BF0023E9
:100CC000A14399400EFA03F39A4300F00F03043B4B
:100CD0001143634409010C3300F16042B0F1FF3F5E
:100CE000C8BF02F56443197010BD00004EF60C51E8
:100CF000CEF200010A684FF6FF031A4060F30A22A1
:100D000042F0806040F0FD70086070472DE9F041CE
:100D1000002800F08B8043F60808C4F2020804465D
:100D2000D8F8F8030D4600F00700884207D288F88B
:100D3000F853D8F8F80300F00700A84276D12068ED
:100D4000810717D5410705D5D8F8001041F4E051C7
:100D5000C8F80010010705D5D8F8001041F460412B
:100D6000C8F80010D8F80010A26821F0F001114373
:100D7000C8F80010C0073FD1D8F8F80300F007000A
:100D8000A84207D988F8F853D8F8F80300F007000C
:100D9000A8424BD12068410707D5D8F80010E26877
:100DA00021F4E0511143C8F80010000708D5D8F825
:100DB0000000216920F4604040EAC100C8F800004A
:100DC00000F068F8D8F8001041F69A02C1F3031158
:100DD000C0F60002515C40F2000220FA01F140F23C
:100DE0001800C2F200000068C2F200021160FFF7B2
:100DF0000DFF0020BDE8F0816068811E022907D246
:100E000058F8081C89015CBF0120BDE8F08110E0A2
:100E1000012807D158F8081C89035CBF0120BDE8F0
:100E2000F08106E058F8081C890702D40120BDE8CB
:100E3000F081D8F8001021F003010843C8F8000041
:100E4000FFF7DCFB064641F2883700BFD8F8000008
:100E5000616800F00C00B0EB810F8DD0FFF7CEFB86
:100E6000801BB842F2D90320BDE8F08140F20000B7
:100E700043F60801C2F20000C4F2020100680968EA
:100E800041F6AA02C1F38221C0F60002515CC840BB
:100E90007047000010B543F60404C4F20204606811
:100EA00000F00C0142F200400829C0F2F40007D023
:100EB000042918BF10BD41F20020C0F27A0010BD15
:100EC000216801F03F02216823684902C3F38811B9
:100ED00005D4A1FB00010023FFF7C6F906E041F2AB
:100EE0000020C0F27A004843B0FBF2F021680222F1
:100EF000C1F3014102EB4101B0FBF1F010BD000074
:100F00002DE9F04182B0002800F0A280044600786C
:100F100043F60006C007C4F2020643D0B06800F0F2
:100F20000C00042805D1306880033BD56068C8BB3D
:100F30008EE0B06800F00C00082802D17068400212
:100F4000F1D46568B5F5A02F0AD0B5F5803F0BD078
:100F5000306820F480303060306820F4802006E073
:100F6000306840F480203060306840F48030306079
:100F7000FFF744FB002D054611D000BF3068800309
:100F800010D4FFF73BFB401B6428F7D922E100BFD8
:100F9000FFF734FB401B64284FF0030055D830683E
:100FA0008003F5D4207880071AD5B06810F00C0FB4
:100FB00009D0B06800F00C00082840F08A80706802
:100FC000400200F186803068800702D5E068012881
:100FD0003ED13068216920F0F80040EAC10030605D
:100FE0002078000738D4207840074CD4A5695DB339
:100FF000B06800F00C00082840F09E80012D27D03A
:101000007068E16900F480028A4221D1216A00F00F
:101010003F028A421CD147F6C071626A0140B1EBBF
:10102000821F15D1A26A0023CFF6FF7303EBC232F1
:1010300000F440316FF30F02914209D1E16A00F0F0
:101040007060B0EB016F03D1002002B0BDE8F08109
:10105000012002B0BDE8F0816069002840F2000084
:10106000C4F2472057D00121C0F8801EFFF7C6FA0E
:10107000054600BF706F8007B5D4FFF7BFFA401B6D
:101080000228F7D9A6E0306C10F080580AD1002071
:101090000190306C40F080503064306C00F0805033
:1010A0000190019847F20007C4F200073868C005B4
:1010B00024D4386840F480703860FFF79FFA054602
:1010C0003868C0051AD4FFF799FA401B0228F7D9EF
:1010D00080E0E068002851D00020C4F247200121C0
:1010E0000160FFF78BFA0546306880073FF571AF66
:1010F000FFF784FA401B0228F6D96BE0A568052D9E
:1011000050D0012D52D0306F20F001003067306F89
:1011100020F004004DE00021C0F8801EFFF76EFAB9
:10112000054600BF706F80077FF55DAFFFF766FA79
:10113000401B0228F6D94DE00027C4F247270020C3
:101140003866FFF75BFA022D05460BD13068800147
:1011500058D5FFF753FA401B02284FF00300F5D98A
:1011600073E700BF306880017FF56EAFFFF746FA86
:10117000401B02284FF00300F4D966E70020C4F2B8
:10118000472000210160FFF739FA054630688007E3
:101190007FF526AFFFF732FA401B02284FF003001D
:1011A000F4D952E7306F40F004003067306F40F000
:1011B00001003067FFF722FA002D054641F288371B
:1011C00014D000BF306F800713D4FFF717FA401B0D
:1011D000B842F7D9032002B0BDE8F081FFF70EFA5C
:1011E000401BB8424FF003003FF62FAF306F80072F
:1011F000F4D4B8F1000F7FF4F9AE306C20F08050D9
:101200003064F3E604F11C052FCD08430021CFF62E
:10121000FF7140EA821001EBC3316FF30F0140EA26
:1012200005600843706001203866FFF7E7F904465F
:10123000306880013FF508AFFFF7E0F9001B022896
:101240004FF00300F4D900E7411E0020B0EB116F0E
:101250001CBF012070474EF21002CEF20002516016
:101260004EF62351CEF20001F0230B70072190605F
:101270001160704710B582B041F204040020CEF234
:10128000000400F037FA102000F034FA40F20000B9
:10129000C2F2000000684DF68361C4F21B31A0FB6E
:1012A0000101890C4FF4FA62206851432268121A36
:1012B0000192019A8A42F9D302B010BD2DE9F043A0
:1012C00083B040F28401C2F2000140F28005087050
:1012D000C2F20005082140F282072970042101288A
:1012E000C2F200074EF6FC5088BF08213970CEF2DA
:1012F0000000016841F2040421F08071016001687E
:10130000CEF2000441F08071016054F8040C20F02A
:10131000010044F8040C54F8040C40F0010044F8B7
:10132000040C00202060322000BF00BF00BFFFF788
:1013300081F828780A268DF8080040F28800C2F269
:10134000000002AA7E2101230096FFF729FA4FF43C
:101350007A70FFF76FF8302000F0CCF940F2000807
:10136000C2F20008D8F800004DF68369C4F21B39B8
:10137000A0FB0901890C41F294122068514300BF7F
:101380002268121A0292029A8A42F9D3302000F09F
:10139000B1F9D8F8000041F29412A0FB0901890CC0
:1013A000206851432268121A0292029A8A42F9D3A3
:1013B000302000F09FF9D8F8000041F29412A0FB11
:1013C0000901890C206851432268121A0292029A7C
:1013D0008A42F9D3202000F08DF9D8F80000642269
:1013E000A0FB0901890C2068514300BF2268121A32
:1013F0000292029A8A42F9D3387840F0200105011E
:1014000001F0F00000F076F9E8B200F073F940F274
:101410008100C2F2000004210170002000F06AF98E
:10142000C02000F067F9002000F064F9102000F0FF
:1014300061F9D8F800004FF4FA62A0FB0901890CA9
:10144000206851432268121A0292029A8A42F9D302
:1014500040F28300C2F2000002210170002000F07F
:1014600049F9602000F046F9D8F8000041F29412E2
:10147000A0FB0901890C2068514300BF2268121AA1
:101480000292029A8A42F9D3402000F033F90020F8
:1014900000F030F940F204054FF0FF37C2F20005CA
:1014A000E8194078060140F0010000F0F10000F07A
:1014B00021F9701CC0B200F01DF90137072FEFD1E0
:1014C000402000F017F9802000F014F940F20C05DC
:1014D0004FF0FF37C2F20005E8194078060140F0EE
:1014E000010000F0F10000F005F9701CC0B200F03E
:1014F00001F90137072FEFD1002000F0FBF8202081
:1015000000F0F8F8D8F800004FF4FA62A0FB0901E7
:10151000890C2068514300BF2268121A0292029A75
:101520008A42F9D303B0BDE8F0830000B0B501787A
:10153000002908BFB0BD441E41F0010000F0F100D9
:101540000D0100F0D7F8681CC0B200F0D3F8A17804
:1015500001340029F0D1B0BD10B540F28402C2F2CE
:10156000000212788A4298BF511EC9B207A212F82F
:101570002110084440F08001040101F0F00000F067
:10158000B9F8E0B200F0B6F810BD00BF00000000EE
:10159000400000001400000054000000FEE70000BE
:1015A00082B0002043F630010190C4F202010A68C3
:1015B00042F080020A600A6802F080020192019AF9
:1015C0000090086840F002000860086800F002001F
:1015D0000090009802B0704780B540F2880045F254
:1015E0000041C2F20000C4F2000148F2A0620023F0
:1015F0004FF4804CC0F2010280E80E00C0E9033CC9
:10160000C0E90533C0E90733FEF7FEFF002818BF25
:10161000FEF70AFF80BD0000FEE70000FEE70000C5
:10162000704700007047000080B5FFF7C5FA80BD25
:1016300070B592B006AC20463021FEF78DFE002535
:1016400043F640000595CDE90355CDE901550095D8
:10165000C4F202000168022641F080510160006876
:1016600000F080500090009847F200000095C4F20E
:101670000000016841F480410160006800F480408E
:10168000009000980120099010200A9008200E90E8
:101690004820CDE90F060720119020460696CDE997
:1016A0000C65FFF72DFC20B1EFF3108072B600BF80
:1016B000FEE70F20CDE901064FF48050CDE9040587
:1016C00001A802210395FFF721FB20B1EFF3108061
:1016D00072B600BFFEE712B070BD00004EF6885033
:1016E000CEF20000016841F4700101607047000013
:1016F000FEE700002DE9F04385B040F28009C2F218
:101700000009044699F8000040F288052043C2F21F
:10171000000541F204068DF806000A270DF10602C5
:1017200028467E210123CEF200060097FFF738F805
:1017300099F800000DF10702204340F004008DF8F5
:10174000070028467E2101230097FFF729F840F281
:101750000008C2F20008D8F800004DF68365C4F214
:101760001B35A0FB0501880C00EB80013068890067
:101770003268121A0292029A8A42F9D399F800004A
:1017800004F0FB0108438DF80F0040F288000A279F
:10179000C2F200000DF10F027E2101230097FEF737
:1017A000FFFFD8F80000A0FB0501880C00EB8001CA
:1017B000306889003268121A0492049A8A42F9D376
:1017C00005B0BDE8F0830000FFF704FAFFF730FF33
:1017D000FFF7E6FEFFF700FF0220FFF76FFDFFF7C0
:1017E00049FD00200021FFF7B7FE19A0FFF79EFE7C
:1017F0004FF4FA60FEF71EFE00200121FFF7ACFE59
:1018000016A0FFF793FE4FF4FA60FEF713FE17A43D
:1018100018A500BFFFF72EFD4FF47A70FEF70AFE01
:1018200001200021FFF798FE2046FFF77FFE4FF4CE
:101830007A70FEF7FFFD00200121FFF78DFE28469C
:10184000FFF774FE4FF47A70FEF7F4FDE2E700BF95
:1018500053544D33322042656164000049324320C5
:101860004C43442044454D4F000000006120686116
:101870007A6900006D756B6F64696B2E2E2E000007
:10188000F1EE100A4FF6FF71C0F2C03120EA0100FC
:1018900040F04070E1EE100A7047000000000000C8
:1018A000000001020304060708090000000001020D
:1018B00003040000D81800080000002020000000E9
:1018C000C4010008F818000820000020C00600002D
:1018D000E0010008000000000024F40000191B06CD
:1018E0000C1B130018180609080906000100000067
:0818F0001000000000000000E0
:040000050800018965
:00000001FF
